{
    "abi": [
        {
            "type": "constructor",
            "inputs": [
                {
                    "name": "_avsDirectory",
                    "type": "address",
                    "internalType": "address"
                },
                {
                    "name": "_stakeRegistry",
                    "type": "address",
                    "internalType": "address"
                },
                {
                    "name": "_delegationManager",
                    "type": "address",
                    "internalType": "address"
                }
            ],
            "stateMutability": "nonpayable"
        },
        {
            "type": "function",
            "name": "allTaskHashes",
            "inputs": [
                {
                    "name": "",
                    "type": "uint32",
                    "internalType": "uint32"
                }
            ],
            "outputs": [
                {
                    "name": "",
                    "type": "bytes32",
                    "internalType": "bytes32"
                }
            ],
            "stateMutability": "view"
        },
        {
            "type": "function",
            "name": "allTaskResponses",
            "inputs": [
                {
                    "name": "",
                    "type": "address",
                    "internalType": "address"
                },
                {
                    "name": "",
                    "type": "uint32",
                    "internalType": "uint32"
                }
            ],
            "outputs": [
                {
                    "name": "",
                    "type": "bytes",
                    "internalType": "bytes"
                }
            ],
            "stateMutability": "view"
        },
        {
            "type": "function",
            "name": "avsDirectory",
            "inputs": [],
            "outputs": [
                {
                    "name": "",
                    "type": "address",
                    "internalType": "address"
                }
            ],
            "stateMutability": "view"
        },
        {
            "type": "function",
            "name": "createNewTask",
            "inputs": [
                {
                    "name": "lotteryId",
                    "type": "uint32",
                    "internalType": "uint32"
                },
                {
                    "name": "lotteryAddress",
                    "type": "string",
                    "internalType": "string"
                },
                {
                    "name": "allowedYieldProtocols",
                    "type": "string[]",
                    "internalType": "string[]"
                }
            ],
            "outputs": [],
            "stateMutability": "nonpayable"
        },
        {
            "type": "function",
            "name": "deregisterOperatorFromAVS",
            "inputs": [
                {
                    "name": "operator",
                    "type": "address",
                    "internalType": "address"
                }
            ],
            "outputs": [],
            "stateMutability": "nonpayable"
        },
        {
            "type": "function",
            "name": "getOperatorRestakedStrategies",
            "inputs": [
                {
                    "name": "_operator",
                    "type": "address",
                    "internalType": "address"
                }
            ],
            "outputs": [
                {
                    "name": "",
                    "type": "address[]",
                    "internalType": "address[]"
                }
            ],
            "stateMutability": "view"
        },
        {
            "type": "function",
            "name": "getRestakeableStrategies",
            "inputs": [],
            "outputs": [
                {
                    "name": "",
                    "type": "address[]",
                    "internalType": "address[]"
                }
            ],
            "stateMutability": "view"
        },
        {
            "type": "function",
            "name": "latestTaskNum",
            "inputs": [],
            "outputs": [
                {
                    "name": "",
                    "type": "uint32",
                    "internalType": "uint32"
                }
            ],
            "stateMutability": "view"
        },
        {
            "type": "function",
            "name": "operatorHasMinimumWeight",
            "inputs": [
                {
                    "name": "operator",
                    "type": "address",
                    "internalType": "address"
                }
            ],
            "outputs": [
                {
                    "name": "",
                    "type": "bool",
                    "internalType": "bool"
                }
            ],
            "stateMutability": "view"
        },
        {
            "type": "function",
            "name": "owner",
            "inputs": [],
            "outputs": [
                {
                    "name": "",
                    "type": "address",
                    "internalType": "address"
                }
            ],
            "stateMutability": "view"
        },
        {
            "type": "function",
            "name": "pause",
            "inputs": [
                {
                    "name": "newPausedStatus",
                    "type": "uint256",
                    "internalType": "uint256"
                }
            ],
            "outputs": [],
            "stateMutability": "nonpayable"
        },
        {
            "type": "function",
            "name": "pauseAll",
            "inputs": [],
            "outputs": [],
            "stateMutability": "nonpayable"
        },
        {
            "type": "function",
            "name": "paused",
            "inputs": [
                {
                    "name": "index",
                    "type": "uint8",
                    "internalType": "uint8"
                }
            ],
            "outputs": [
                {
                    "name": "",
                    "type": "bool",
                    "internalType": "bool"
                }
            ],
            "stateMutability": "view"
        },
        {
            "type": "function",
            "name": "paused",
            "inputs": [],
            "outputs": [
                {
                    "name": "",
                    "type": "uint256",
                    "internalType": "uint256"
                }
            ],
            "stateMutability": "view"
        },
        {
            "type": "function",
            "name": "pauserRegistry",
            "inputs": [],
            "outputs": [
                {
                    "name": "",
                    "type": "address",
                    "internalType": "contract IPauserRegistry"
                }
            ],
            "stateMutability": "view"
        },
        {
            "type": "function",
            "name": "payForRange",
            "inputs": [
                {
                    "name": "rangePayments",
                    "type": "tuple[]",
                    "internalType": "struct IPaymentCoordinator.RangePayment[]",
                    "components": [
                        {
                            "name": "strategiesAndMultipliers",
                            "type": "tuple[]",
                            "internalType": "struct IPaymentCoordinator.StrategyAndMultiplier[]",
                            "components": [
                                {
                                    "name": "strategy",
                                    "type": "address",
                                    "internalType": "contract IStrategy"
                                },
                                {
                                    "name": "multiplier",
                                    "type": "uint96",
                                    "internalType": "uint96"
                                }
                            ]
                        },
                        {
                            "name": "token",
                            "type": "address",
                            "internalType": "contract IERC20"
                        },
                        {
                            "name": "amount",
                            "type": "uint256",
                            "internalType": "uint256"
                        },
                        {
                            "name": "startTimestamp",
                            "type": "uint32",
                            "internalType": "uint32"
                        },
                        {
                            "name": "duration",
                            "type": "uint32",
                            "internalType": "uint32"
                        }
                    ]
                }
            ],
            "outputs": [],
            "stateMutability": "nonpayable"
        },
        {
            "type": "function",
            "name": "registerOperatorToAVS",
            "inputs": [
                {
                    "name": "operator",
                    "type": "address",
                    "internalType": "address"
                },
                {
                    "name": "operatorSignature",
                    "type": "tuple",
                    "internalType": "struct ISignatureUtils.SignatureWithSaltAndExpiry",
                    "components": [
                        {
                            "name": "signature",
                            "type": "bytes",
                            "internalType": "bytes"
                        },
                        {
                            "name": "salt",
                            "type": "bytes32",
                            "internalType": "bytes32"
                        },
                        {
                            "name": "expiry",
                            "type": "uint256",
                            "internalType": "uint256"
                        }
                    ]
                }
            ],
            "outputs": [],
            "stateMutability": "nonpayable"
        },
        {
            "type": "function",
            "name": "renounceOwnership",
            "inputs": [],
            "outputs": [],
            "stateMutability": "nonpayable"
        },
        {
            "type": "function",
            "name": "respondToTask",
            "inputs": [
                {
                    "name": "task",
                    "type": "tuple",
                    "internalType": "struct ILotteryServiceManager.Task",
                    "components": [
                        {
                            "name": "lotteryId",
                            "type": "uint32",
                            "internalType": "uint32"
                        },
                        {
                            "name": "lotteryAddress",
                            "type": "string",
                            "internalType": "string"
                        },
                        {
                            "name": "allowedYieldProtocols",
                            "type": "string[]",
                            "internalType": "string[]"
                        },
                        {
                            "name": "taskCreatedBlock",
                            "type": "uint32",
                            "internalType": "uint32"
                        }
                    ]
                },
                {
                    "name": "referenceTaskIndex",
                    "type": "uint32",
                    "internalType": "uint32"
                },
                {
                    "name": "signature",
                    "type": "bytes",
                    "internalType": "bytes"
                }
            ],
            "outputs": [],
            "stateMutability": "nonpayable"
        },
        {
            "type": "function",
            "name": "setPauserRegistry",
            "inputs": [
                {
                    "name": "newPauserRegistry",
                    "type": "address",
                    "internalType": "contract IPauserRegistry"
                }
            ],
            "outputs": [],
            "stateMutability": "nonpayable"
        },
        {
            "type": "function",
            "name": "stakeRegistry",
            "inputs": [],
            "outputs": [
                {
                    "name": "",
                    "type": "address",
                    "internalType": "address"
                }
            ],
            "stateMutability": "view"
        },
        {
            "type": "function",
            "name": "transferOwnership",
            "inputs": [
                {
                    "name": "newOwner",
                    "type": "address",
                    "internalType": "address"
                }
            ],
            "outputs": [],
            "stateMutability": "nonpayable"
        },
        {
            "type": "function",
            "name": "unpause",
            "inputs": [
                {
                    "name": "newPausedStatus",
                    "type": "uint256",
                    "internalType": "uint256"
                }
            ],
            "outputs": [],
            "stateMutability": "nonpayable"
        },
        {
            "type": "function",
            "name": "updateAVSMetadataURI",
            "inputs": [
                {
                    "name": "_metadataURI",
                    "type": "string",
                    "internalType": "string"
                }
            ],
            "outputs": [],
            "stateMutability": "nonpayable"
        },
        {
            "type": "event",
            "name": "Initialized",
            "inputs": [
                {
                    "name": "version",
                    "type": "uint8",
                    "indexed": false,
                    "internalType": "uint8"
                }
            ],
            "anonymous": false
        },
        {
            "type": "event",
            "name": "NewTaskCreated",
            "inputs": [
                {
                    "name": "taskIndex",
                    "type": "uint32",
                    "indexed": true,
                    "internalType": "uint32"
                },
                {
                    "name": "task",
                    "type": "tuple",
                    "indexed": false,
                    "internalType": "struct ILotteryServiceManager.Task",
                    "components": [
                        {
                            "name": "lotteryId",
                            "type": "uint32",
                            "internalType": "uint32"
                        },
                        {
                            "name": "lotteryAddress",
                            "type": "string",
                            "internalType": "string"
                        },
                        {
                            "name": "allowedYieldProtocols",
                            "type": "string[]",
                            "internalType": "string[]"
                        },
                        {
                            "name": "taskCreatedBlock",
                            "type": "uint32",
                            "internalType": "uint32"
                        }
                    ]
                }
            ],
            "anonymous": false
        },
        {
            "type": "event",
            "name": "OwnershipTransferred",
            "inputs": [
                {
                    "name": "previousOwner",
                    "type": "address",
                    "indexed": true,
                    "internalType": "address"
                },
                {
                    "name": "newOwner",
                    "type": "address",
                    "indexed": true,
                    "internalType": "address"
                }
            ],
            "anonymous": false
        },
        {
            "type": "event",
            "name": "Paused",
            "inputs": [
                {
                    "name": "account",
                    "type": "address",
                    "indexed": true,
                    "internalType": "address"
                },
                {
                    "name": "newPausedStatus",
                    "type": "uint256",
                    "indexed": false,
                    "internalType": "uint256"
                }
            ],
            "anonymous": false
        },
        {
            "type": "event",
            "name": "PauserRegistrySet",
            "inputs": [
                {
                    "name": "pauserRegistry",
                    "type": "address",
                    "indexed": false,
                    "internalType": "contract IPauserRegistry"
                },
                {
                    "name": "newPauserRegistry",
                    "type": "address",
                    "indexed": false,
                    "internalType": "contract IPauserRegistry"
                }
            ],
            "anonymous": false
        },
        {
            "type": "event",
            "name": "TaskResponded",
            "inputs": [
                {
                    "name": "taskIndex",
                    "type": "uint32",
                    "indexed": true,
                    "internalType": "uint32"
                },
                {
                    "name": "task",
                    "type": "tuple",
                    "indexed": false,
                    "internalType": "struct ILotteryServiceManager.Task",
                    "components": [
                        {
                            "name": "lotteryId",
                            "type": "uint32",
                            "internalType": "uint32"
                        },
                        {
                            "name": "lotteryAddress",
                            "type": "string",
                            "internalType": "string"
                        },
                        {
                            "name": "allowedYieldProtocols",
                            "type": "string[]",
                            "internalType": "string[]"
                        },
                        {
                            "name": "taskCreatedBlock",
                            "type": "uint32",
                            "internalType": "uint32"
                        }
                    ]
                },
                {
                    "name": "operator",
                    "type": "address",
                    "indexed": false,
                    "internalType": "address"
                }
            ],
            "anonymous": false
        },
        {
            "type": "event",
            "name": "Unpaused",
            "inputs": [
                {
                    "name": "account",
                    "type": "address",
                    "indexed": true,
                    "internalType": "address"
                },
                {
                    "name": "newPausedStatus",
                    "type": "uint256",
                    "indexed": false,
                    "internalType": "uint256"
                }
            ],
            "anonymous": false
        }
    ],
    "bytecode": {
        "object": "0x61010060405234801561001157600080fd5b5060405161303c38038061303c83398101604081905261003091610146565b6001600160a01b0380841660a052808316608052600060c081905290821660e052839083908361005e61006a565b50505050505050610189565b600054610100900460ff16156100d65760405162461bcd60e51b815260206004820152602760248201527f496e697469616c697a61626c653a20636f6e747261637420697320696e697469604482015266616c697a696e6760c81b606482015260840160405180910390fd5b60005460ff9081161015610128576000805460ff191660ff9081179091556040519081527f7f26b83ff96e1f2b6a682f133852f6798a09c465da95921460cefb38474024989060200160405180910390a15b565b80516001600160a01b038116811461014157600080fd5b919050565b60008060006060848603121561015b57600080fd5b6101648461012a565b92506101726020850161012a565b91506101806040850161012a565b90509250925092565b60805160a05160c05160e051612e2d61020f60003960006115da015260008181611349015261141f015260008181610272015281816118210152818161187701526118ee015260008181610233015281816107f501528181610847015281816108b301528181610dd001528181610e6f01528181611492015261194d0152612e2d6000f3fe608060405234801561001057600080fd5b50600436106101585760003560e01c8063886f1195116100c3578063b9307bc81161007c578063b9307bc814610331578063c20bab7f14610344578063d5dba76d14610364578063e481af9d14610377578063f2fde38b1461037f578063fabc1cbc1461039257600080fd5b8063886f1195146102af5780638b00ce7c146102c25780638da5cb5b146102e75780639926ee7d146102f8578063a364f4da1461030b578063a98fb3551461031e57600080fd5b80635ac86ab7116101155780635ac86ab7146101f35780635c975abb14610226578063683048351461022e5780636b3aa72e1461026d578063715018a614610294578063863525391461029c57600080fd5b806310d67a2f1461015d578063136439dd146101725780631b445516146101855780632d89f6fc1461019857806333cfb7b7146101cb578063595c6a67146101eb575b600080fd5b61017061016b366004611de3565b6103a5565b005b610170610180366004611e07565b610461565b610170610193366004611e64565b6105a0565b6101b86101a6366004611ebe565b60ca6020526000908152604090205481565b6040519081526020015b60405180910390f35b6101de6101d9366004611de3565b6105b6565b6040516101c29190611ed9565b6101706105c7565b610216610201366004611f25565b609854600160ff9092169190911b9081161490565b60405190151581526020016101c2565b6098546101b8565b6102557f000000000000000000000000000000000000000000000000000000000000000081565b6040516001600160a01b0390911681526020016101c2565b6102557f000000000000000000000000000000000000000000000000000000000000000081565b61017061068e565b6101706102aa366004611f89565b6106a2565b609754610255906001600160a01b031681565b60c9546102d29063ffffffff1681565b60405163ffffffff90911681526020016101c2565b6033546001600160a01b0316610255565b61017061030636600461211a565b6107ea565b610170610319366004611de3565b61083c565b61017061032c3660046121e8565b61088d565b61017061033f366004612224565b61089e565b6103576103523660046122a3565b610d27565b6040516101c2919061231e565b610216610372366004611de3565b610dcc565b6101de610ee2565b61017061038d366004611de3565b610ef1565b6101706103a0366004611e07565b610f67565b609760009054906101000a90046001600160a01b03166001600160a01b031663eab66d7a6040518163ffffffff1660e01b8152600401602060405180830381865afa1580156103f8573d6000803e3d6000fd5b505050506040513d601f19601f8201168201806040525081019061041c9190612331565b6001600160a01b0316336001600160a01b0316146104555760405162461bcd60e51b815260040161044c9061234e565b60405180910390fd5b61045e816110c3565b50565b60975460405163237dfb4760e11b81523360048201526001600160a01b03909116906346fbf68e90602401602060405180830381865afa1580156104a9573d6000803e3d6000fd5b505050506040513d601f19601f820116820180604052508101906104cd9190612398565b6104e95760405162461bcd60e51b815260040161044c906123ba565b609854818116146105625760405162461bcd60e51b815260206004820152603860248201527f5061757361626c652e70617573653a20696e76616c696420617474656d70742060448201527f746f20756e70617573652066756e6374696f6e616c6974790000000000000000606482015260840161044c565b609881905560405181815233907fab40a374bc51de372200a8bc981af8c9ecdc08dfdaef0bb6e09f88f3c616ef3d906020015b60405180910390a250565b6105a86111ba565b6105b28282611214565b5050565b60606105c18261148c565b92915050565b60975460405163237dfb4760e11b81523360048201526001600160a01b03909116906346fbf68e90602401602060405180830381865afa15801561060f573d6000803e3d6000fd5b505050506040513d601f19601f820116820180604052508101906106339190612398565b61064f5760405162461bcd60e51b815260040161044c906123ba565b600019609881905560405190815233907fab40a374bc51de372200a8bc981af8c9ecdc08dfdaef0bb6e09f88f3c616ef3d9060200160405180910390a2565b6106966111ba565b6106a060006117b8565b565b6106d96040518060800160405280600063ffffffff1681526020016060815260200160608152602001600063ffffffff1681525090565b63ffffffff86168152604080516020601f870181900481028201810190925285815290869086908190840183828082843760009201919091525050505060208201526107258284612425565b60408083019190915263ffffffff431660608301525161074990829060200161248f565b60408051601f19818403018152828252805160209182012060c9805463ffffffff908116600090815260ca90945293909220555416907f97aeadc907008665fd4ad26930c89968586192f17cdf54edd43ed353059d0222906107ac90849061248f565b60405180910390a260c9546107c89063ffffffff16600161254f565b60c9805463ffffffff191663ffffffff92909216919091179055505050505050565b336001600160a01b037f000000000000000000000000000000000000000000000000000000000000000016146108325760405162461bcd60e51b815260040161044c9061256b565b6105b2828261180a565b336001600160a01b037f000000000000000000000000000000000000000000000000000000000000000016146108845760405162461bcd60e51b815260040161044c9061256b565b61045e81611858565b6108956111ba565b61045e816118d7565b60405163ec7fbb3160e01b81523360048201527f00000000000000000000000000000000000000000000000000000000000000006001600160a01b03169063ec7fbb3190602401602060405180830381865afa158015610902573d6000803e3d6000fd5b505050506040513d601f19601f820116820180604052508101906109269190612398565b15156001146109775760405162461bcd60e51b815260206004820152601b60248201527f4f70657261746f72206d757374206265207468652063616c6c65720000000000604482015260640161044c565b61098033610dcc565b6109e95760405162461bcd60e51b815260206004820152603460248201527f4f70657261746f7220646f6573206e6f742068617665206d61746368207468656044820152732077656967687420726571756972656d656e747360601b606482015260840161044c565b63ffffffff8316600090815260ca6020908152604091829020549151610a1191879101612760565b6040516020818303038152906040528051906020012014610a9a5760405162461bcd60e51b815260206004820152603d60248201527f737570706c696564207461736b20646f6573206e6f74206d617463682074686560448201527f206f6e65207265636f7264656420696e2074686520636f6e7472616374000000606482015260840161044c565b33600090815260cb6020908152604080832063ffffffff8716845290915290208054610ac590612773565b159050610b275760405162461bcd60e51b815260206004820152602a60248201527f4f70657261746f722068617320616c726561647920726573706f6e64656420746044820152696f20746865207461736b60b01b606482015260840161044c565b6000805b610b3860408701876127ad565b9050811015610c5b576000610b5060408801886127ad565b83818110610b6057610b606127f6565b9050602002810190610b72919061280c565b604051602001610b83929190612852565b6040516020818303038152906040528051906020012090506000610bf4826040517f19457468657265756d205369676e6564204d6573736167653a0a3332000000006020820152603c8101829052600090605c01604051602081830303815290604052805190602001209050919050565b9050610c3886868080601f01602080910402602001604051908101604052809392919081815260200183838082843760009201919091525085939250506119239050565b9350336001600160a01b03851603610c51575050610c5b565b5050600101610b2b565b506001600160a01b0381163314610cb45760405162461bcd60e51b815260206004820181905260248201527f556e6b6e6f776e205969656c642050726f746f636f6c20737065636966696564604482015260640161044c565b33600090815260cb6020908152604080832063ffffffff881684529091529020610cdf8385836128ae565b508363ffffffff167fcca9e795d2f53f4a9206dd94cdf183c26838061e021dfa29096ba4a0522bfad68633604051610d1892919061296d565b60405180910390a25050505050565b60cb60209081526000928352604080842090915290825290208054610d4b90612773565b80601f0160208091040260200160405190810160405280929190818152602001828054610d7790612773565b8015610dc45780601f10610d9957610100808354040283529160200191610dc4565b820191906000526020600020905b815481529060010190602001808311610da757829003601f168201915b505050505081565b60007f00000000000000000000000000000000000000000000000000000000000000006001600160a01b03166340bf2fb76040518163ffffffff1660e01b8152600401602060405180830381865afa158015610e2c573d6000803e3d6000fd5b505050506040513d601f19601f82011682018060405250810190610e509190612997565b6040516398ec1ac960e01b81526001600160a01b0384811660048301527f000000000000000000000000000000000000000000000000000000000000000016906398ec1ac990602401602060405180830381865afa158015610eb6573d6000803e3d6000fd5b505050506040513d601f19601f82011682018060405250810190610eda9190612997565b101592915050565b6060610eec611947565b905090565b610ef96111ba565b6001600160a01b038116610f5e5760405162461bcd60e51b815260206004820152602660248201527f4f776e61626c653a206e6577206f776e657220697320746865207a65726f206160448201526564647265737360d01b606482015260840161044c565b61045e816117b8565b609760009054906101000a90046001600160a01b03166001600160a01b031663eab66d7a6040518163ffffffff1660e01b8152600401602060405180830381865afa158015610fba573d6000803e3d6000fd5b505050506040513d601f19601f82011682018060405250810190610fde9190612331565b6001600160a01b0316336001600160a01b03161461100e5760405162461bcd60e51b815260040161044c9061234e565b60985419811960985419161461108c5760405162461bcd60e51b815260206004820152603860248201527f5061757361626c652e756e70617573653a20696e76616c696420617474656d7060448201527f7420746f2070617573652066756e6374696f6e616c6974790000000000000000606482015260840161044c565b609881905560405181815233907f3582d1828e26bf56bd801502bc021ac0bc8afb57c826e4986b45593c8fad389c90602001610595565b6001600160a01b0381166111515760405162461bcd60e51b815260206004820152604960248201527f5061757361626c652e5f73657450617573657252656769737472793a206e657760448201527f50617573657252656769737472792063616e6e6f7420626520746865207a65726064820152686f206164647265737360b81b608482015260a40161044c565b609754604080516001600160a01b03928316815291831660208301527f6e9fcd539896fca60e8b0f01dd580233e48a6b0f7df013b89ba7f565869acdb6910160405180910390a1609780546001600160a01b0319166001600160a01b0392909216919091179055565b6033546001600160a01b031633146106a05760405162461bcd60e51b815260206004820181905260248201527f4f776e61626c653a2063616c6c6572206973206e6f7420746865206f776e6572604482015260640161044c565b60005b8181101561140757828282818110611231576112316127f6565b905060200281019061124391906129b0565b611254906040810190602001611de3565b6001600160a01b03166323b872dd3330868686818110611276576112766127f6565b905060200281019061128891906129b0565b604080516001600160e01b031960e087901b1681526001600160a01b039485166004820152939092166024840152013560448201526064016020604051808303816000875af11580156112df573d6000803e3d6000fd5b505050506040513d601f19601f820116820180604052508101906113039190612398565b50828282818110611316576113166127f6565b905060200281019061132891906129b0565b611339906040810190602001611de3565b6001600160a01b031663095ea7b37f000000000000000000000000000000000000000000000000000000000000000085858581811061137a5761137a6127f6565b905060200281019061138c91906129b0565b604080516001600160e01b031960e086901b1681526001600160a01b039093166004840152013560248201526044016020604051808303816000875af11580156113da573d6000803e3d6000fd5b505050506040513d601f19601f820116820180604052508101906113fe9190612398565b50600101611217565b50604051630da22a8b60e11b81526001600160a01b037f00000000000000000000000000000000000000000000000000000000000000001690631b445516906114569085908590600401612a60565b600060405180830381600087803b15801561147057600080fd5b505af1158015611484573d6000803e3d6000fd5b505050505050565b606060007f00000000000000000000000000000000000000000000000000000000000000006001600160a01b0316631703a0186040518163ffffffff1660e01b8152600401600060405180830381865afa1580156114ee573d6000803e3d6000fd5b505050506040513d6000823e601f3d908101601f191682016040526115169190810190612b7a565b8051519091506000816001600160401b038111156115365761153661200d565b60405190808252806020026020018201604052801561155f578160200160208202803683370190505b50905060005b828110156115bf578351805182908110611581576115816127f6565b60200260200101516000015182828151811061159f5761159f6127f6565b6001600160a01b0390921660209283029190910190910152600101611565565b50604051639004134760e01b81526000906001600160a01b037f000000000000000000000000000000000000000000000000000000000000000016906390041347906116119089908690600401612c82565b600060405180830381865afa15801561162e573d6000803e3d6000fd5b505050506040513d6000823e601f3d908101601f191682016040526116569190810190612cd5565b90506000836001600160401b038111156116725761167261200d565b60405190808252806020026020018201604052801561169b578160200160208202803683370190505b5090506000805b858110156116e25760008482815181106116be576116be6127f6565b602002602001015111156116da57816116d681612d6a565b9250505b6001016116a2565b506000816001600160401b038111156116fd576116fd61200d565b604051908082528060200260200182016040528015611726578160200160208202803683370190505b50905060005b868110156117ab576000858281518110611748576117486127f6565b602002602001015111156117a357838181518110611768576117686127f6565b6020026020010151828281518110611782576117826127f6565b60200260200101906001600160a01b031690816001600160a01b0316815250505b60010161172c565b5098975050505050505050565b603380546001600160a01b038381166001600160a01b0319831681179093556040519116919082907f8be0079c531659141344cd1fd0a4f28419497f9722a3daafe3b4186f6b6457e090600090a35050565b604051639926ee7d60e01b81526001600160a01b037f00000000000000000000000000000000000000000000000000000000000000001690639926ee7d906114569085908590600401612d83565b6040516351b27a6d60e11b81526001600160a01b0382811660048301527f0000000000000000000000000000000000000000000000000000000000000000169063a364f4da906024015b600060405180830381600087803b1580156118bc57600080fd5b505af11580156118d0573d6000803e3d6000fd5b5050505050565b60405163a98fb35560e01b81526001600160a01b037f0000000000000000000000000000000000000000000000000000000000000000169063a98fb355906118a290849060040161231e565b60008060006119328585611a84565b9150915061193f81611af2565b509392505050565b606060007f00000000000000000000000000000000000000000000000000000000000000006001600160a01b0316631703a0186040518163ffffffff1660e01b8152600401600060405180830381865afa1580156119a9573d6000803e3d6000fd5b505050506040513d6000823e601f3d908101601f191682016040526119d19190810190612b7a565b905060008160000151516001600160401b038111156119f2576119f261200d565b604051908082528060200260200182016040528015611a1b578160200160208202803683370190505b50905060005b825151811015611a7d578251805182908110611a3f57611a3f6127f6565b602002602001015160000151828281518110611a5d57611a5d6127f6565b6001600160a01b0390921660209283029190910190910152600101611a21565b5092915050565b6000808251604103611aba5760208301516040840151606085015160001a611aae87828585611ca8565b94509450505050611aeb565b8251604003611ae35760208301516040840151611ad8868383611d95565b935093505050611aeb565b506000905060025b9250929050565b6000816004811115611b0657611b06612dce565b03611b0e5750565b6001816004811115611b2257611b22612dce565b03611b6f5760405162461bcd60e51b815260206004820152601860248201527f45434453413a20696e76616c6964207369676e61747572650000000000000000604482015260640161044c565b6002816004811115611b8357611b83612dce565b03611bd05760405162461bcd60e51b815260206004820152601f60248201527f45434453413a20696e76616c6964207369676e6174757265206c656e67746800604482015260640161044c565b6003816004811115611be457611be4612dce565b03611c3c5760405162461bcd60e51b815260206004820152602260248201527f45434453413a20696e76616c6964207369676e6174757265202773272076616c604482015261756560f01b606482015260840161044c565b6004816004811115611c5057611c50612dce565b0361045e5760405162461bcd60e51b815260206004820152602260248201527f45434453413a20696e76616c6964207369676e6174757265202776272076616c604482015261756560f01b606482015260840161044c565b6000807f7fffffffffffffffffffffffffffffff5d576e7357a4501ddfe92f46681b20a0831115611cdf5750600090506003611d8c565b8460ff16601b14158015611cf757508460ff16601c14155b15611d085750600090506004611d8c565b6040805160008082526020820180845289905260ff881692820192909252606081018690526080810185905260019060a0016020604051602081039080840390855afa158015611d5c573d6000803e3d6000fd5b5050604051601f1901519150506001600160a01b038116611d8557600060019250925050611d8c565b9150600090505b94509492505050565b6000806001600160ff1b03831681611db260ff86901c601b612de4565b9050611dc087828885611ca8565b935093505050935093915050565b6001600160a01b038116811461045e57600080fd5b600060208284031215611df557600080fd5b8135611e0081611dce565b9392505050565b600060208284031215611e1957600080fd5b5035919050565b60008083601f840112611e3257600080fd5b5081356001600160401b03811115611e4957600080fd5b6020830191508360208260051b8501011115611aeb57600080fd5b60008060208385031215611e7757600080fd5b82356001600160401b03811115611e8d57600080fd5b611e9985828601611e20565b90969095509350505050565b803563ffffffff81168114611eb957600080fd5b919050565b600060208284031215611ed057600080fd5b611e0082611ea5565b602080825282518282018190526000918401906040840190835b81811015611f1a5783516001600160a01b0316835260209384019390920191600101611ef3565b509095945050505050565b600060208284031215611f3757600080fd5b813560ff81168114611e0057600080fd5b60008083601f840112611f5a57600080fd5b5081356001600160401b03811115611f7157600080fd5b602083019150836020828501011115611aeb57600080fd5b600080600080600060608688031215611fa157600080fd5b611faa86611ea5565b945060208601356001600160401b03811115611fc557600080fd5b611fd188828901611f48565b90955093505060408601356001600160401b03811115611ff057600080fd5b611ffc88828901611e20565b969995985093965092949392505050565b634e487b7160e01b600052604160045260246000fd5b604051606081016001600160401b03811182821017156120455761204561200d565b60405290565b604051602081016001600160401b03811182821017156120455761204561200d565b604080519081016001600160401b03811182821017156120455761204561200d565b604051601f8201601f191681016001600160401b03811182821017156120b7576120b761200d565b604052919050565b6000806001600160401b038411156120d9576120d961200d565b50601f8301601f19166020016120ee8161208f565b91505082815283838301111561210357600080fd5b828260208301376000602084830101529392505050565b6000806040838503121561212d57600080fd5b823561213881611dce565b915060208301356001600160401b0381111561215357600080fd5b83016060818603121561216557600080fd5b61216d612023565b81356001600160401b0381111561218357600080fd5b8201601f8101871361219457600080fd5b6121a3878235602084016120bf565b8252506020828101359082015260409182013591810191909152919491935090915050565b600082601f8301126121d957600080fd5b611e00838335602085016120bf565b6000602082840312156121fa57600080fd5b81356001600160401b0381111561221057600080fd5b61221c848285016121c8565b949350505050565b6000806000806060858703121561223a57600080fd5b84356001600160401b0381111561225057600080fd5b85016080818803121561226257600080fd5b935061227060208601611ea5565b925060408501356001600160401b0381111561228b57600080fd5b61229787828801611f48565b95989497509550505050565b600080604083850312156122b657600080fd5b82356122c181611dce565b91506122cf60208401611ea5565b90509250929050565b6000815180845260005b818110156122fe576020818501810151868301820152016122e2565b506000602082860101526020601f19601f83011685010191505092915050565b602081526000611e0060208301846122d8565b60006020828403121561234357600080fd5b8151611e0081611dce565b6020808252602a908201527f6d73672e73656e646572206973206e6f74207065726d697373696f6e6564206160408201526939903ab73830bab9b2b960b11b606082015260800190565b6000602082840312156123aa57600080fd5b81518015158114611e0057600080fd5b60208082526028908201527f6d73672e73656e646572206973206e6f74207065726d697373696f6e6564206160408201526739903830bab9b2b960c11b606082015260800190565b60006001600160401b0382111561241b5761241b61200d565b5060051b60200190565b600061243861243384612402565b61208f565b8381526020810190600585901b84013681111561245457600080fd5b845b81811015611f1a5780356001600160401b0381111561247457600080fd5b612480368289016121c8565b85525060209384019301612456565b6020815263ffffffff825116602082015260006020830151608060408401526124bb60a08401826122d8565b6040850151848203601f19016060860152805180835291925060209081019181840191600582901b85010160005b8281101561251a57601f198683030184526125058286516122d8565b602095860195949094019391506001016124e9565b50606088015163ffffffff811660808901529450979650505050505050565b634e487b7160e01b600052601160045260246000fd5b63ffffffff81811683821601908111156105c1576105c1612539565b6020808252604a908201527f4543445341536572766963654d616e61676572426173652e6f6e6c795374616b60408201527f6552656769737472793a2063616c6c6572206973206e6f7420746865207374616060820152696b65526567697374727960b01b608082015260a00190565b6000808335601e198436030181126125f257600080fd5b83016020810192503590506001600160401b0381111561261157600080fd5b803603821315611aeb57600080fd5b81835281816020850137506000828201602090810191909152601f909101601f19169091010190565b60008383855260208501945060208460051b8201018360005b868110156126a057838303601f1901885261267d82876125db565b612688858284612620565b60209a8b019a90955093909301925050600101612662565b50909695505050505050565b63ffffffff6126ba82611ea5565b16825260006126cc60208301836125db565b608060208601526126e1608086018284612620565b9150506040830135601e198436030181126126fb57600080fd5b83016020810190356001600160401b0381111561271757600080fd5b8060051b360382131561272957600080fd5b858303604087015261273c838284612649565b9250505061274c60608401611ea5565b63ffffffff81166060860152509392505050565b602081526000611e0060208301846126ac565b600181811c9082168061278757607f821691505b6020821081036127a757634e487b7160e01b600052602260045260246000fd5b50919050565b6000808335601e198436030181126127c457600080fd5b8301803591506001600160401b038211156127de57600080fd5b6020019150600581901b3603821315611aeb57600080fd5b634e487b7160e01b600052603260045260246000fd5b6000808335601e1984360301811261282357600080fd5b8301803591506001600160401b0382111561283d57600080fd5b602001915036819003821315611aeb57600080fd5b8183823760009101908152919050565b601f8211156128a957806000526020600020601f840160051c810160208510156128895750805b601f840160051c820191505b818110156118d05760008155600101612895565b505050565b6001600160401b038311156128c5576128c561200d565b6128d9836128d38354612773565b83612862565b6000601f84116001811461290d57600085156128f55750838201355b600019600387901b1c1916600186901b1783556118d0565b600083815260209020601f19861690835b8281101561293e578685013582556020948501946001909201910161291e565b508682101561295b5760001960f88860031b161c19848701351681555b505060018560011b0183555050505050565b60408152600061298060408301856126ac565b905060018060a01b03831660208301529392505050565b6000602082840312156129a957600080fd5b5051919050565b60008235609e198336030181126129c657600080fd5b9190910192915050565b8035611eb981611dce565b6bffffffffffffffffffffffff8116811461045e57600080fd5b81835260208301925060008160005b84811015612a56578135612a1781611dce565b6001600160a01b031686526020820135612a30816129db565b6bffffffffffffffffffffffff1660208701526040958601959190910190600101612a04565b5093949350505050565b6020808252810182905260006040600584901b830181019083018583609e1936839003015b87821015612b6d57868503603f190184528235818112612aa457600080fd5b8901803536829003601e19018112612abb57600080fd5b81016020810190356001600160401b03811115612ad757600080fd5b8060061b3603821315612ae957600080fd5b60a08852612afb60a0890182846129f5565b915050612b0a602083016129d0565b6001600160a01b0316602088015260408281013590880152612b2e60608301611ea5565b63ffffffff166060880152612b4560808301611ea5565b63ffffffff811660808901529150955050602093840193929092019160019190910190612a85565b5092979650505050505050565b600060208284031215612b8c57600080fd5b81516001600160401b03811115612ba257600080fd5b820160208185031215612bb457600080fd5b612bbc61204b565b81516001600160401b03811115612bd257600080fd5b80830192505084601f830112612be757600080fd5b8151612bf561243382612402565b8082825260208201915060208360061b860101925087831115612c1757600080fd5b6020850194505b82851015612c755760408589031215612c3657600080fd5b612c3e61206d565b8551612c4981611dce565b81526020860151612c59816129db565b8060208301525080835250602082019150604085019450612c1e565b8352509095945050505050565b6001600160a01b0383168152604060208083018290528351918301829052600091908401906060840190835b818110156126a05783516001600160a01b0316835260209384019390920191600101612cae565b600060208284031215612ce757600080fd5b81516001600160401b03811115612cfd57600080fd5b8201601f81018413612d0e57600080fd5b8051612d1c61243382612402565b8082825260208201915060208360051b850101925086831115612d3e57600080fd5b6020840193505b82841015612d60578351825260209384019390910190612d45565b9695505050505050565b600060018201612d7c57612d7c612539565b5060010190565b60018060a01b0383168152604060208201526000825160606040840152612dad60a08401826122d8565b90506020840151606084015260408401516080840152809150509392505050565b634e487b7160e01b600052602160045260246000fd5b808201808211156105c1576105c161253956fea2646970667358221220d867cd6233b2af4f158118b6d0b919510d2130a8c7c66e5ec39307a9e5c74f2f64736f6c634300081a0033",
        "linkReferences": {}
    },
    "methodIdentifiers": {
        "allTaskHashes(uint32)": "2d89f6fc",
        "allTaskResponses(address,uint32)": "c20bab7f",
        "avsDirectory()": "6b3aa72e",
        "createNewTask(uint32,string,string[])": "86352539",
        "deregisterOperatorFromAVS(address)": "a364f4da",
        "getOperatorRestakedStrategies(address)": "33cfb7b7",
        "getRestakeableStrategies()": "e481af9d",
        "latestTaskNum()": "8b00ce7c",
        "operatorHasMinimumWeight(address)": "d5dba76d",
        "owner()": "8da5cb5b",
        "pause(uint256)": "136439dd",
        "pauseAll()": "595c6a67",
        "paused()": "5c975abb",
        "paused(uint8)": "5ac86ab7",
        "pauserRegistry()": "886f1195",
        "payForRange(((address,uint96)[],address,uint256,uint32,uint32)[])": "1b445516",
        "registerOperatorToAVS(address,(bytes,bytes32,uint256))": "9926ee7d",
        "renounceOwnership()": "715018a6",
        "respondToTask((uint32,string,string[],uint32),uint32,bytes)": "b9307bc8",
        "setPauserRegistry(address)": "10d67a2f",
        "stakeRegistry()": "68304835",
        "transferOwnership(address)": "f2fde38b",
        "unpause(uint256)": "fabc1cbc",
        "updateAVSMetadataURI(string)": "a98fb355"
    },
    "id": 89
}